{
  "contractName": "ERC721Enumerable",
  "abi": [
    {
      "anonymous": false,
      "inputs": [
        {
          "indexed": false,
          "internalType": "address",
          "name": "from",
          "type": "address"
        },
        {
          "indexed": false,
          "internalType": "address",
          "name": "to",
          "type": "address"
        },
        {
          "indexed": false,
          "internalType": "uint256",
          "name": "tokenId",
          "type": "uint256"
        }
      ],
      "name": "Transfer",
      "type": "event"
    },
    {
      "inputs": [
        {
          "internalType": "address",
          "name": "_owner",
          "type": "address"
        }
      ],
      "name": "balanceOf",
      "outputs": [
        {
          "internalType": "uint256",
          "name": "",
          "type": "uint256"
        }
      ],
      "stateMutability": "view",
      "type": "function"
    },
    {
      "inputs": [
        {
          "internalType": "uint256",
          "name": "_tokenId",
          "type": "uint256"
        }
      ],
      "name": "ownerOf",
      "outputs": [
        {
          "internalType": "address",
          "name": "",
          "type": "address"
        }
      ],
      "stateMutability": "view",
      "type": "function"
    },
    {
      "inputs": [],
      "name": "totalSupply",
      "outputs": [
        {
          "internalType": "uint256",
          "name": "",
          "type": "uint256"
        }
      ],
      "stateMutability": "view",
      "type": "function"
    }
  ],
  "bytecode": "0x608060405234801561001057600080fd5b5061045a806100206000396000f3fe608060405234801561001057600080fd5b50600436106100415760003560e01c806318160ddd146100465780636352211e1461006457806370a0823114610094575b600080fd5b61004e6100c4565b60405161005b9190610253565b60405180910390f35b61007e6004803603810190610079919061029f565b6100d1565b60405161008b919061030d565b60405180910390f35b6100ae60048036038101906100a99190610354565b610182565b6040516100bb9190610253565b60405180910390f35b6000600280549050905090565b60008060008084815260200190815260200160002060009054906101000a900473ffffffffffffffffffffffffffffffffffffffff169050600073ffffffffffffffffffffffffffffffffffffffff168173ffffffffffffffffffffffffffffffffffffffff161415610179576040517f08c379a000000000000000000000000000000000000000000000000000000000815260040161017090610404565b60405180910390fd5b80915050919050565b60008073ffffffffffffffffffffffffffffffffffffffff168273ffffffffffffffffffffffffffffffffffffffff1614156101f3576040517f08c379a00000000000000000000000000000000000000000000000000000000081526004016101ea90610404565b60405180910390fd5b600160008373ffffffffffffffffffffffffffffffffffffffff1673ffffffffffffffffffffffffffffffffffffffff168152602001908152602001600020549050919050565b6000819050919050565b61024d8161023a565b82525050565b60006020820190506102686000830184610244565b92915050565b600080fd5b61027c8161023a565b811461028757600080fd5b50565b60008135905061029981610273565b92915050565b6000602082840312156102b5576102b461026e565b5b60006102c38482850161028a565b91505092915050565b600073ffffffffffffffffffffffffffffffffffffffff82169050919050565b60006102f7826102cc565b9050919050565b610307816102ec565b82525050565b600060208201905061032260008301846102fe565b92915050565b610331816102ec565b811461033c57600080fd5b50565b60008135905061034e81610328565b92915050565b60006020828403121561036a5761036961026e565b5b60006103788482850161033f565b91505092915050565b600082825260208201905092915050565b7f6f776e657220717565727920666f72206e6f6e2d6578697374656e7420746f6b60008201527f656e730000000000000000000000000000000000000000000000000000000000602082015250565b60006103ee602383610381565b91506103f982610392565b604082019050919050565b6000602082019050818103600083015261041d816103e1565b905091905056fea2646970667358221220a73ab44d767151ede8d3f358f28442b9f0105ce4c4c344438e0c246fdb41944564736f6c634300080c0033",
  "immutableReferences": {},
  "source": "// SPDX-License-Identifier: MIT\npragma solidity ^0.8.0;\n\nimport \"./ERC721.sol\";\n\ncontract ERC721Enumerable is ERC721 {\n    uint256[] private _allTokens;\n\n    mapping(uint256 => uint256) private _allTokensIndex;\n    mapping(address => uint256[]) private _ownedTokens;\n    mapping(uint256 => uint256) private _ownedTokenIndex;\n\n    // function tokenByIndex(uint256 _index) external view returns (uint256);\n\n    // function tokenOfOwnerByIndex(address _owner, uint256 _index)\n    //     external\n    //     view\n    //     returns (uint256);\n\n    function _mint(address to, uint256 tokenId) internal override(ERC721) {\n        super._mint(to, tokenId);\n        _addTokensToTotalSupply(tokenId);\n    }\n\n    function _addTokensToTotalSupply(uint256 tokenId) private {\n        _allTokens.push(tokenId);\n    }\n\n    function totalSupply() public view returns (uint256) {\n        return _allTokens.length;\n    }\n}\n",
  "sourcePath": "/Users/macbookpro/Desktop/Waqar/Projects/crypto/nft-marketplace-starter-kit/src/contracts/ERC721Enumerable.sol",
  "compiler": {
    "name": "solc",
    "version": "0.8.12+commit.f00d7308.Emscripten.clang"
  },
  "schemaVersion": "3.4.5",
  "updatedAt": "2022-03-03T03:48:02.374Z",
  "devdoc": {
    "kind": "dev",
    "methods": {},
    "version": 1
  },
  "userdoc": {
    "kind": "user",
    "methods": {},
    "version": 1
  }
}