{
  "contractName": "ERC721",
  "abi": [
    {
      "anonymous": false,
      "inputs": [
        {
          "indexed": true,
          "internalType": "address",
          "name": "owner",
          "type": "address"
        },
        {
          "indexed": true,
          "internalType": "address",
          "name": "approved",
          "type": "address"
        },
        {
          "indexed": true,
          "internalType": "uint256",
          "name": "tokenId",
          "type": "uint256"
        }
      ],
      "name": "Approval",
      "type": "event"
    },
    {
      "anonymous": false,
      "inputs": [
        {
          "indexed": true,
          "internalType": "address",
          "name": "from",
          "type": "address"
        },
        {
          "indexed": true,
          "internalType": "address",
          "name": "to",
          "type": "address"
        },
        {
          "indexed": true,
          "internalType": "uint256",
          "name": "tokenId",
          "type": "uint256"
        }
      ],
      "name": "Transfer",
      "type": "event"
    },
    {
      "inputs": [
        {
          "internalType": "address",
          "name": "_owner",
          "type": "address"
        }
      ],
      "name": "balanceOf",
      "outputs": [
        {
          "internalType": "uint256",
          "name": "",
          "type": "uint256"
        }
      ],
      "stateMutability": "view",
      "type": "function"
    },
    {
      "inputs": [
        {
          "internalType": "uint256",
          "name": "_tokenId",
          "type": "uint256"
        }
      ],
      "name": "ownerOf",
      "outputs": [
        {
          "internalType": "address",
          "name": "",
          "type": "address"
        }
      ],
      "stateMutability": "view",
      "type": "function"
    },
    {
      "inputs": [
        {
          "internalType": "address",
          "name": "_from",
          "type": "address"
        },
        {
          "internalType": "address",
          "name": "_to",
          "type": "address"
        },
        {
          "internalType": "uint256",
          "name": "_tokenId",
          "type": "uint256"
        }
      ],
      "name": "transferFrom",
      "outputs": [],
      "stateMutability": "nonpayable",
      "type": "function"
    },
    {
      "inputs": [
        {
          "internalType": "address",
          "name": "_to",
          "type": "address"
        },
        {
          "internalType": "uint256",
          "name": "tokenId",
          "type": "uint256"
        }
      ],
      "name": "approve",
      "outputs": [],
      "stateMutability": "nonpayable",
      "type": "function"
    }
  ],
  "bytecode": "0x608060405234801561001057600080fd5b50610f05806100206000396000f3fe608060405234801561001057600080fd5b506004361061004c5760003560e01c8063095ea7b31461005157806323b872dd1461006d5780636352211e1461008957806370a08231146100b9575b600080fd5b61006b6004803603810190610066919061093c565b6100e9565b005b6100876004803603810190610082919061097c565b6102f5565b005b6100a3600480360381019061009e91906109cf565b610318565b6040516100b09190610a0b565b60405180910390f35b6100d360048036038101906100ce9190610a26565b6103c8565b6040516100e09190610a62565b60405180910390f35b60003073ffffffffffffffffffffffffffffffffffffffff16636352211e836040518263ffffffff1660e01b81526004016101249190610a62565b602060405180830381865afa158015610141573d6000803e3d6000fd5b505050506040513d601f19601f820116820180604052508101906101659190610a92565b90508073ffffffffffffffffffffffffffffffffffffffff168373ffffffffffffffffffffffffffffffffffffffff16036101d5576040517f08c379a00000000000000000000000000000000000000000000000000000000081526004016101cc90610b42565b60405180910390fd5b8073ffffffffffffffffffffffffffffffffffffffff163373ffffffffffffffffffffffffffffffffffffffff1614610243576040517f08c379a000000000000000000000000000000000000000000000000000000000815260040161023a90610bd4565b60405180910390fd5b826002600084815260200190815260200160002060006101000a81548173ffffffffffffffffffffffffffffffffffffffff021916908373ffffffffffffffffffffffffffffffffffffffff160217905550818373ffffffffffffffffffffffffffffffffffffffff168273ffffffffffffffffffffffffffffffffffffffff167f8c5be1e5ebec7d5bd14f71427d1e84f3dd0314c0f7b2291e5b200ac8c7c3b92560405160405180910390a4505050565b6102ff338261047f565b61030857600080fd5b61031383838361057f565b505050565b60008060008084815260200190815260200160002060009054906101000a900473ffffffffffffffffffffffffffffffffffffffff169050600073ffffffffffffffffffffffffffffffffffffffff168173ffffffffffffffffffffffffffffffffffffffff16036103bf576040517f08c379a00000000000000000000000000000000000000000000000000000000081526004016103b690610c66565b60405180910390fd5b80915050919050565b60008073ffffffffffffffffffffffffffffffffffffffff168273ffffffffffffffffffffffffffffffffffffffff1603610438576040517f08c379a000000000000000000000000000000000000000000000000000000000815260040161042f90610c66565b60405180910390fd5b600160008373ffffffffffffffffffffffffffffffffffffffff1673ffffffffffffffffffffffffffffffffffffffff168152602001908152602001600020549050919050565b600061048a82610832565b6104c9576040517f08c379a00000000000000000000000000000000000000000000000000000000081526004016104c090610cd2565b60405180910390fd5b60003073ffffffffffffffffffffffffffffffffffffffff16636352211e846040518263ffffffff1660e01b81526004016105049190610a62565b602060405180830381865afa158015610521573d6000803e3d6000fd5b505050506040513d601f19601f820116820180604052508101906105459190610a92565b90508073ffffffffffffffffffffffffffffffffffffffff168473ffffffffffffffffffffffffffffffffffffffff161491505092915050565b600073ffffffffffffffffffffffffffffffffffffffff168273ffffffffffffffffffffffffffffffffffffffff16036105ee576040517f08c379a00000000000000000000000000000000000000000000000000000000081526004016105e590610d64565b60405180910390fd5b8273ffffffffffffffffffffffffffffffffffffffff163073ffffffffffffffffffffffffffffffffffffffff16636352211e836040518263ffffffff1660e01b815260040161063e9190610a62565b602060405180830381865afa15801561065b573d6000803e3d6000fd5b505050506040513d601f19601f8201168201806040525081019061067f9190610a92565b73ffffffffffffffffffffffffffffffffffffffff16146106d5576040517f08c379a00000000000000000000000000000000000000000000000000000000081526004016106cc90610df6565b60405180910390fd5b60018060008573ffffffffffffffffffffffffffffffffffffffff1673ffffffffffffffffffffffffffffffffffffffff16815260200190815260200160002060008282546107249190610e45565b9250508190555060018060008473ffffffffffffffffffffffffffffffffffffffff1673ffffffffffffffffffffffffffffffffffffffff168152602001908152602001600020600082825461077a9190610e79565b925050819055508160008083815260200190815260200160002060006101000a81548173ffffffffffffffffffffffffffffffffffffffff021916908373ffffffffffffffffffffffffffffffffffffffff160217905550808273ffffffffffffffffffffffffffffffffffffffff168473ffffffffffffffffffffffffffffffffffffffff167fddf252ad1be2c89b69c2b068fc378daa952ba7f163c4a11628f55a4df523b3ef60405160405180910390a4505050565b60008060008084815260200190815260200160002060009054906101000a900473ffffffffffffffffffffffffffffffffffffffff169050600073ffffffffffffffffffffffffffffffffffffffff168173ffffffffffffffffffffffffffffffffffffffff161415915050919050565b600080fd5b600073ffffffffffffffffffffffffffffffffffffffff82169050919050565b60006108d3826108a8565b9050919050565b6108e3816108c8565b81146108ee57600080fd5b50565b600081359050610900816108da565b92915050565b6000819050919050565b61091981610906565b811461092457600080fd5b50565b60008135905061093681610910565b92915050565b60008060408385031215610953576109526108a3565b5b6000610961858286016108f1565b925050602061097285828601610927565b9150509250929050565b600080600060608486031215610995576109946108a3565b5b60006109a3868287016108f1565b93505060206109b4868287016108f1565b92505060406109c586828701610927565b9150509250925092565b6000602082840312156109e5576109e46108a3565b5b60006109f384828501610927565b91505092915050565b610a05816108c8565b82525050565b6000602082019050610a2060008301846109fc565b92915050565b600060208284031215610a3c57610a3b6108a3565b5b6000610a4a848285016108f1565b91505092915050565b610a5c81610906565b82525050565b6000602082019050610a776000830184610a53565b92915050565b600081519050610a8c816108da565b92915050565b600060208284031215610aa857610aa76108a3565b5b6000610ab684828501610a7d565b91505092915050565b600082825260208201905092915050565b7f4572726f72202d20417070726f76616c20746f2063757272656e74206f776e6560008201527f7200000000000000000000000000000000000000000000000000000000000000602082015250565b6000610b2c602183610abf565b9150610b3782610ad0565b604082019050919050565b60006020820190508181036000830152610b5b81610b1f565b9050919050565b7f43757272656e742063616c6c6572206973206e6f7420746865206f776e65722060008201527f6f6620746f6b656e000000000000000000000000000000000000000000000000602082015250565b6000610bbe602883610abf565b9150610bc982610b62565b604082019050919050565b60006020820190508181036000830152610bed81610bb1565b9050919050565b7f6f776e657220717565727920666f72206e6f6e2d6578697374656e7420746f6b60008201527f656e730000000000000000000000000000000000000000000000000000000000602082015250565b6000610c50602383610abf565b9150610c5b82610bf4565b604082019050919050565b60006020820190508181036000830152610c7f81610c43565b9050919050565b7f746f6b656e20646f6573206e6f74206578697374000000000000000000000000600082015250565b6000610cbc601483610abf565b9150610cc782610c86565b602082019050919050565b60006020820190508181036000830152610ceb81610caf565b9050919050565b7f4572726f72202d20455243373231205472616e7366657220746f20746865207a60008201527f65726f2061646472657373000000000000000000000000000000000000000000602082015250565b6000610d4e602b83610abf565b9150610d5982610cf2565b604082019050919050565b60006020820190508181036000830152610d7d81610d41565b9050919050565b7f547279696e6720746f207472616e73666572206120746f6b656e20746865206160008201527f64647265737320646f6573206e6f74206d61746368206f776e65720000000000602082015250565b6000610de0603b83610abf565b9150610deb82610d84565b604082019050919050565b60006020820190508181036000830152610e0f81610dd3565b9050919050565b7f4e487b7100000000000000000000000000000000000000000000000000000000600052601160045260246000fd5b6000610e5082610906565b9150610e5b83610906565b925082821015610e6e57610e6d610e16565b5b828203905092915050565b6000610e8482610906565b9150610e8f83610906565b9250827fffffffffffffffffffffffffffffffffffffffffffffffffffffffffffffffff03821115610ec457610ec3610e16565b5b82820190509291505056fea26469706673582212207d362e2debab3216d43399db5e869a5f7c1e0f1fc79cf3470252797fad49f5f364736f6c634300080d0033",
  "immutableReferences": {},
  "source": "// SPDX-License-Identifier: MIT\npragma solidity ^0.8.0;\n\ncontract ERC721 {\n    event Transfer(\n        address indexed from,\n        address indexed to,\n        uint256 indexed tokenId\n    );\n    event Approval(\n        address indexed owner,\n        address indexed approved,\n        uint256 indexed tokenId\n    );\n\n    mapping(uint256 => address) private _tokenOwner;\n    mapping(address => uint256) private _ownedTokensCount;\n    mapping(uint256 => address) private _tokenApprovals;\n\n    function balanceOf(address _owner) public view returns (uint256) {\n        require(_owner != address(0), \"owner query for non-existent tokens\");\n        return _ownedTokensCount[_owner];\n    }\n\n    function ownerOf(uint256 _tokenId) external view returns (address) {\n        address owner = _tokenOwner[_tokenId];\n        require(owner != address(0), \"owner query for non-existent tokens\");\n        return owner;\n    }\n\n    function _exists(uint256 tokenId) internal view returns (bool) {\n        address owner = _tokenOwner[tokenId];\n        return owner != address(0);\n    }\n\n    function _mint(address to, uint256 tokenId) internal virtual {\n        //requires that the address isn't zero\n        require(to != address(0), \"ERC721: minting to zero address\");\n        //require that token doesn't already exists\n        require(!_exists(tokenId), \"ERC721: token already minted\");\n\n        _tokenOwner[tokenId] = to;\n        _ownedTokensCount[to] += 1;\n\n        emit Transfer(address(0), to, tokenId);\n    }\n\n    function _transferFrom(\n        address _from,\n        address _to,\n        uint256 _tokenId\n    ) internal {\n        require(\n            _to != address(0),\n            \"Error - ERC721 Transfer to the zero address\"\n        );\n        require(\n            this.ownerOf(_tokenId) == _from,\n            \"Trying to transfer a token the address does not match owner\"\n        );\n\n        _ownedTokensCount[_from] -= 1;\n        _ownedTokensCount[_to] += 1;\n        _tokenOwner[_tokenId] = _to;\n\n        emit Transfer(_from, _to, _tokenId);\n    }\n\n    function transferFrom(\n        address _from,\n        address _to,\n        uint256 _tokenId\n    ) public {\n        require(isApprovedOrOwner(msg.sender, _tokenId));\n        _transferFrom(_from, _to, _tokenId);\n    }\n\n    function approve(address _to, uint256 tokenId) public {\n        address owner = this.ownerOf(tokenId);\n        require(_to != owner, \"Error - Approval to current owner\");\n        require(\n            msg.sender == owner,\n            \"Current caller is not the owner of token\"\n        );\n        _tokenApprovals[tokenId] = _to;\n        emit Approval(owner, _to, tokenId);\n    }\n\n    function isApprovedOrOwner(address spender, uint256 tokenId)\n        internal\n        view\n        returns (bool)\n    {\n        require(_exists(tokenId), \"token does not exist\");\n        address owner = this.ownerOf(tokenId);\n\n        // return (spender == owner || getApproved(tokenId) == spender);\n        return (spender == owner);\n        // return (0)\n    }\n}\n",
  "sourcePath": "/Users/macbookpro/Desktop/Waqar/Projects/crypto/nft-marketplace-starter-kit/src/contracts/ERC721.sol",
  "compiler": {
    "name": "solc",
    "version": "0.8.13+commit.abaa5c0e.Emscripten.clang"
  },
  "schemaVersion": "3.4.5",
  "updatedAt": "2022-03-24T03:40:50.580Z",
  "devdoc": {
    "kind": "dev",
    "methods": {},
    "version": 1
  },
  "userdoc": {
    "kind": "user",
    "methods": {},
    "version": 1
  }
}