{
  "contractName": "KryptoBird",
  "abi": [
    {
      "inputs": [],
      "stateMutability": "nonpayable",
      "type": "constructor"
    },
    {
      "anonymous": false,
      "inputs": [
        {
          "indexed": true,
          "internalType": "address",
          "name": "_owner",
          "type": "address"
        },
        {
          "indexed": true,
          "internalType": "address",
          "name": "_approved",
          "type": "address"
        },
        {
          "indexed": true,
          "internalType": "uint256",
          "name": "_tokenId",
          "type": "uint256"
        }
      ],
      "name": "Approval",
      "type": "event"
    },
    {
      "anonymous": false,
      "inputs": [
        {
          "indexed": true,
          "internalType": "address",
          "name": "_from",
          "type": "address"
        },
        {
          "indexed": true,
          "internalType": "address",
          "name": "_to",
          "type": "address"
        },
        {
          "indexed": true,
          "internalType": "uint256",
          "name": "_tokenId",
          "type": "uint256"
        }
      ],
      "name": "Transfer",
      "type": "event"
    },
    {
      "inputs": [
        {
          "internalType": "uint256",
          "name": "",
          "type": "uint256"
        }
      ],
      "name": "KryptoBirdz",
      "outputs": [
        {
          "internalType": "string",
          "name": "",
          "type": "string"
        }
      ],
      "stateMutability": "view",
      "type": "function",
      "constant": true
    },
    {
      "inputs": [
        {
          "internalType": "address",
          "name": "_to",
          "type": "address"
        },
        {
          "internalType": "uint256",
          "name": "tokenId",
          "type": "uint256"
        }
      ],
      "name": "approve",
      "outputs": [],
      "stateMutability": "nonpayable",
      "type": "function"
    },
    {
      "inputs": [
        {
          "internalType": "address",
          "name": "_owner",
          "type": "address"
        }
      ],
      "name": "balanceOf",
      "outputs": [
        {
          "internalType": "uint256",
          "name": "",
          "type": "uint256"
        }
      ],
      "stateMutability": "view",
      "type": "function",
      "constant": true
    },
    {
      "inputs": [],
      "name": "name",
      "outputs": [
        {
          "internalType": "string",
          "name": "",
          "type": "string"
        }
      ],
      "stateMutability": "view",
      "type": "function",
      "constant": true
    },
    {
      "inputs": [
        {
          "internalType": "uint256",
          "name": "_tokenId",
          "type": "uint256"
        }
      ],
      "name": "ownerOf",
      "outputs": [
        {
          "internalType": "address",
          "name": "",
          "type": "address"
        }
      ],
      "stateMutability": "view",
      "type": "function",
      "constant": true
    },
    {
      "inputs": [
        {
          "internalType": "bytes4",
          "name": "interfaceId",
          "type": "bytes4"
        }
      ],
      "name": "supportsInterface",
      "outputs": [
        {
          "internalType": "bool",
          "name": "",
          "type": "bool"
        }
      ],
      "stateMutability": "view",
      "type": "function",
      "constant": true
    },
    {
      "inputs": [],
      "name": "symbol",
      "outputs": [
        {
          "internalType": "string",
          "name": "",
          "type": "string"
        }
      ],
      "stateMutability": "view",
      "type": "function",
      "constant": true
    },
    {
      "inputs": [
        {
          "internalType": "uint256",
          "name": "_index",
          "type": "uint256"
        }
      ],
      "name": "tokenByIndex",
      "outputs": [
        {
          "internalType": "uint256",
          "name": "",
          "type": "uint256"
        }
      ],
      "stateMutability": "view",
      "type": "function",
      "constant": true
    },
    {
      "inputs": [
        {
          "internalType": "address",
          "name": "owner",
          "type": "address"
        },
        {
          "internalType": "uint256",
          "name": "index",
          "type": "uint256"
        }
      ],
      "name": "tokenOfOwnerByIndex",
      "outputs": [
        {
          "internalType": "uint256",
          "name": "",
          "type": "uint256"
        }
      ],
      "stateMutability": "view",
      "type": "function",
      "constant": true
    },
    {
      "inputs": [],
      "name": "totalSupply",
      "outputs": [
        {
          "internalType": "uint256",
          "name": "",
          "type": "uint256"
        }
      ],
      "stateMutability": "view",
      "type": "function",
      "constant": true
    },
    {
      "inputs": [
        {
          "internalType": "address",
          "name": "_from",
          "type": "address"
        },
        {
          "internalType": "address",
          "name": "_to",
          "type": "address"
        },
        {
          "internalType": "uint256",
          "name": "_tokenId",
          "type": "uint256"
        }
      ],
      "name": "transferFrom",
      "outputs": [],
      "stateMutability": "nonpayable",
      "type": "function"
    },
    {
      "inputs": [
        {
          "internalType": "string",
          "name": "_kryptobird",
          "type": "string"
        }
      ],
      "name": "mint",
      "outputs": [],
      "stateMutability": "nonpayable",
      "type": "function"
    }
  ],
  "bytecode": "0x60806040523480156200001157600080fd5b506040518060400160405280600a81526020017f4b727970746f42697264000000000000000000000000000000000000000000008152506040518060400160405280600681526020017f4b424952445a00000000000000000000000000000000000000000000000000008152508181620000b17f01ffc9a7a5cef8baa21ed3c5c0d7e23accb804b619e9333b597f47a0d84076e26200022a60201b60201c565b8160019080519060200190620000c992919062000301565b508060029080519060200190620000e292919062000301565b50620001367f13b182f4c0e5b2efbac0efe6cf6d756c8b89f4b79c5707a043ed9ea740574ee97f7feaf19471f34a12a7eaf32d5f3090aa2260ea8624dc8a138e74e0bf0f623076186200022a60201b60201c565b5050620001ad7fa26b8ab0483a89473734448d048d5e2a4fc36e1204690ab3713af6abef450a8b7f3a6eb71757dfc6e784c1459d26270140c2c147d95ca985c80026fc5301c3eca17f8a7e378434598edc36d108689a030cbc9d7d465de4f74c71bae1028eed6a881b18186200022a60201b60201c565b620002227f8230223f691b981717299fae9549350a0d894555723531f02108b1f522c1a7977f6da5e1284143cdd2d15038a59bde3be031250f00291d64494c12d967b3a4e0c37fc53637662700e6c65104059db8bba34439e0c32483ab7c34e3ccae52c739549518186200022a60201b60201c565b505062000498565b63ffffffff60e01b817bffffffffffffffffffffffffffffffffffffffffffffffffffffffff19160362000295576040517f08c379a00000000000000000000000000000000000000000000000000000000081526004016200028c9062000412565b60405180910390fd5b6001600080837bffffffffffffffffffffffffffffffffffffffffffffffffffffffff19167bffffffffffffffffffffffffffffffffffffffffffffffffffffffff1916815260200190815260200160002060006101000a81548160ff02191690831515021790555050565b8280546200030f9062000463565b90600052602060002090601f0160209004810192826200033357600085556200037f565b82601f106200034e57805160ff19168380011785556200037f565b828001600101855582156200037f579182015b828111156200037e57825182559160200191906001019062000361565b5b5090506200038e919062000392565b5090565b5b80821115620003ad57600081600090555060010162000393565b5090565b600082825260208201905092915050565b7f496e76616c696420696e74657266616365207265717565737400000000000000600082015250565b6000620003fa601983620003b1565b91506200040782620003c2565b602082019050919050565b600060208201905081810360008301526200042d81620003eb565b9050919050565b7f4e487b7100000000000000000000000000000000000000000000000000000000600052602260045260246000fd5b600060028204905060018216806200047c57607f821691505b60208210810362000492576200049162000434565b5b50919050565b611ead80620004a86000396000f3fe608060405234801561001057600080fd5b50600436106100b45760003560e01c80634f6ccce7116100715780634f6ccce71461018d5780636352211e146101bd57806370a08231146101ed57806395d89b411461021d578063a3a1ff581461023b578063d85d3d271461026b576100b4565b806301ffc9a7146100b957806306fdde03146100e9578063095ea7b31461010757806318160ddd1461012357806323b872dd146101415780632f745c591461015d575b600080fd5b6100d360048036038101906100ce91906112a1565b610287565b6040516100e091906112e9565b60405180910390f35b6100f16102ee565b6040516100fe919061139d565b60405180910390f35b610121600480360381019061011c9190611453565b610380565b005b61012b61058c565b60405161013891906114a2565b60405180910390f35b61015b600480360381019061015691906114bd565b610599565b005b61017760048036038101906101729190611453565b6105bc565b60405161018491906114a2565b60405180910390f35b6101a760048036038101906101a29190611510565b61066c565b6040516101b491906114a2565b60405180910390f35b6101d760048036038101906101d29190611510565b6106d2565b6040516101e4919061154c565b60405180910390f35b61020760048036038101906102029190611567565b610783565b60405161021491906114a2565b60405180910390f35b61022561083a565b604051610232919061139d565b60405180910390f35b61025560048036038101906102509190611510565b6108cc565b604051610262919061139d565b60405180910390f35b610285600480360381019061028091906116c9565b610978565b005b6000806000837bffffffffffffffffffffffffffffffffffffffffffffffffffffffff19167bffffffffffffffffffffffffffffffffffffffffffffffffffffffff1916815260200190815260200160002060009054906101000a900460ff169050919050565b6060600180546102fd90611741565b80601f016020809104026020016040519081016040528092919081815260200182805461032990611741565b80156103765780601f1061034b57610100808354040283529160200191610376565b820191906000526020600020905b81548152906001019060200180831161035957829003601f168201915b5050505050905090565b60003073ffffffffffffffffffffffffffffffffffffffff16636352211e836040518263ffffffff1660e01b81526004016103bb91906114a2565b602060405180830381865afa1580156103d8573d6000803e3d6000fd5b505050506040513d601f19601f820116820180604052508101906103fc9190611787565b90508073ffffffffffffffffffffffffffffffffffffffff168373ffffffffffffffffffffffffffffffffffffffff160361046c576040517f08c379a000000000000000000000000000000000000000000000000000000000815260040161046390611826565b60405180910390fd5b8073ffffffffffffffffffffffffffffffffffffffff163373ffffffffffffffffffffffffffffffffffffffff16146104da576040517f08c379a00000000000000000000000000000000000000000000000000000000081526004016104d1906118b8565b60405180910390fd5b826005600084815260200190815260200160002060006101000a81548173ffffffffffffffffffffffffffffffffffffffff021916908373ffffffffffffffffffffffffffffffffffffffff160217905550818373ffffffffffffffffffffffffffffffffffffffff168273ffffffffffffffffffffffffffffffffffffffff167f8c5be1e5ebec7d5bd14f71427d1e84f3dd0314c0f7b2291e5b200ac8c7c3b92560405160405180910390a4505050565b6000600680549050905090565b6105a33382610a7b565b6105ac57600080fd5b6105b7838383610b7b565b505050565b60006105c783610783565b8210610608576040517f08c379a00000000000000000000000000000000000000000000000000000000081526004016105ff90611924565b60405180910390fd5b600860008473ffffffffffffffffffffffffffffffffffffffff1673ffffffffffffffffffffffffffffffffffffffff168152602001908152602001600020828154811061065957610658611944565b5b9060005260206000200154905092915050565b600061067661058c565b82106106b7576040517f08c379a00000000000000000000000000000000000000000000000000000000081526004016106ae906119bf565b60405180910390fd5b60076000838152602001908152602001600020549050919050565b6000806003600084815260200190815260200160002060009054906101000a900473ffffffffffffffffffffffffffffffffffffffff169050600073ffffffffffffffffffffffffffffffffffffffff168173ffffffffffffffffffffffffffffffffffffffff160361077a576040517f08c379a000000000000000000000000000000000000000000000000000000000815260040161077190611a51565b60405180910390fd5b80915050919050565b60008073ffffffffffffffffffffffffffffffffffffffff168273ffffffffffffffffffffffffffffffffffffffff16036107f3576040517f08c379a00000000000000000000000000000000000000000000000000000000081526004016107ea90611a51565b60405180910390fd5b600460008373ffffffffffffffffffffffffffffffffffffffff1673ffffffffffffffffffffffffffffffffffffffff168152602001908152602001600020549050919050565b60606002805461084990611741565b80601f016020809104026020016040519081016040528092919081815260200182805461087590611741565b80156108c25780601f10610897576101008083540402835291602001916108c2565b820191906000526020600020905b8154815290600101906020018083116108a557829003601f168201915b5050505050905090565b600a81815481106108dc57600080fd5b9060005260206000200160009150905080546108f790611741565b80601f016020809104026020016040519081016040528092919081815260200182805461092390611741565b80156109705780601f1061094557610100808354040283529160200191610970565b820191906000526020600020905b81548152906001019060200180831161095357829003601f168201915b505050505081565b600b816040516109889190611aad565b908152602001604051809103902060009054906101000a900460ff16156109e4576040517f08c379a00000000000000000000000000000000000000000000000000000000081526004016109db90611b36565b60405180910390fd5b600a81908060018154018082558091505060019003906000526020600020016000909190919091509080519060200190610a1f929190611192565b5060006001600a80549050610a349190611b85565b90506001600b83604051610a489190611aad565b908152602001604051809103902060006101000a81548160ff021916908315150217905550610a773382610e31565b5050565b6000610a8682610e52565b610ac5576040517f08c379a0000000000000000000000000000000000000000000000000000000008152600401610abc90611c05565b60405180910390fd5b60003073ffffffffffffffffffffffffffffffffffffffff16636352211e846040518263ffffffff1660e01b8152600401610b0091906114a2565b602060405180830381865afa158015610b1d573d6000803e3d6000fd5b505050506040513d601f19601f82011682018060405250810190610b419190611787565b90508073ffffffffffffffffffffffffffffffffffffffff168473ffffffffffffffffffffffffffffffffffffffff161491505092915050565b600073ffffffffffffffffffffffffffffffffffffffff168273ffffffffffffffffffffffffffffffffffffffff1603610bea576040517f08c379a0000000000000000000000000000000000000000000000000000000008152600401610be190611c97565b60405180910390fd5b8273ffffffffffffffffffffffffffffffffffffffff163073ffffffffffffffffffffffffffffffffffffffff16636352211e836040518263ffffffff1660e01b8152600401610c3a91906114a2565b602060405180830381865afa158015610c57573d6000803e3d6000fd5b505050506040513d601f19601f82011682018060405250810190610c7b9190611787565b73ffffffffffffffffffffffffffffffffffffffff1614610cd1576040517f08c379a0000000000000000000000000000000000000000000000000000000008152600401610cc890611d29565b60405180910390fd5b6001600460008573ffffffffffffffffffffffffffffffffffffffff1673ffffffffffffffffffffffffffffffffffffffff1681526020019081526020016000206000828254610d219190611b85565b925050819055506001600460008473ffffffffffffffffffffffffffffffffffffffff1673ffffffffffffffffffffffffffffffffffffffff1681526020019081526020016000206000828254610d789190611d49565b92505081905550816003600083815260200190815260200160002060006101000a81548173ffffffffffffffffffffffffffffffffffffffff021916908373ffffffffffffffffffffffffffffffffffffffff160217905550808273ffffffffffffffffffffffffffffffffffffffff168473ffffffffffffffffffffffffffffffffffffffff167fddf252ad1be2c89b69c2b068fc378daa952ba7f163c4a11628f55a4df523b3ef60405160405180910390a4505050565b610e3b8282610ec4565b610e4481611085565b610e4e82826110ce565b5050565b6000806003600084815260200190815260200160002060009054906101000a900473ffffffffffffffffffffffffffffffffffffffff169050600073ffffffffffffffffffffffffffffffffffffffff168173ffffffffffffffffffffffffffffffffffffffff161415915050919050565b600073ffffffffffffffffffffffffffffffffffffffff168273ffffffffffffffffffffffffffffffffffffffff1603610f33576040517f08c379a0000000000000000000000000000000000000000000000000000000008152600401610f2a90611deb565b60405180910390fd5b610f3c81610e52565b15610f7c576040517f08c379a0000000000000000000000000000000000000000000000000000000008152600401610f7390611e57565b60405180910390fd5b816003600083815260200190815260200160002060006101000a81548173ffffffffffffffffffffffffffffffffffffffff021916908373ffffffffffffffffffffffffffffffffffffffff1602179055506001600460008473ffffffffffffffffffffffffffffffffffffffff1673ffffffffffffffffffffffffffffffffffffffff168152602001908152602001600020600082825461101e9190611d49565b92505081905550808273ffffffffffffffffffffffffffffffffffffffff16600073ffffffffffffffffffffffffffffffffffffffff167fddf252ad1be2c89b69c2b068fc378daa952ba7f163c4a11628f55a4df523b3ef60405160405180910390a45050565b6006805490506007600083815260200190815260200160002081905550600681908060018154018082558091505060019003906000526020600020016000909190919091505550565b600860008373ffffffffffffffffffffffffffffffffffffffff1673ffffffffffffffffffffffffffffffffffffffff168152602001908152602001600020819080600181540180825580915050600190039060005260206000200160009091909190915055600860008373ffffffffffffffffffffffffffffffffffffffff1673ffffffffffffffffffffffffffffffffffffffff1681526020019081526020016000208054905060096000838152602001908152602001600020819055505050565b82805461119e90611741565b90600052602060002090601f0160209004810192826111c05760008555611207565b82601f106111d957805160ff1916838001178555611207565b82800160010185558215611207579182015b828111156112065782518255916020019190600101906111eb565b5b5090506112149190611218565b5090565b5b80821115611231576000816000905550600101611219565b5090565b6000604051905090565b600080fd5b600080fd5b60007fffffffff0000000000000000000000000000000000000000000000000000000082169050919050565b61127e81611249565b811461128957600080fd5b50565b60008135905061129b81611275565b92915050565b6000602082840312156112b7576112b661123f565b5b60006112c58482850161128c565b91505092915050565b60008115159050919050565b6112e3816112ce565b82525050565b60006020820190506112fe60008301846112da565b92915050565b600081519050919050565b600082825260208201905092915050565b60005b8381101561133e578082015181840152602081019050611323565b8381111561134d576000848401525b50505050565b6000601f19601f8301169050919050565b600061136f82611304565b611379818561130f565b9350611389818560208601611320565b61139281611353565b840191505092915050565b600060208201905081810360008301526113b78184611364565b905092915050565b600073ffffffffffffffffffffffffffffffffffffffff82169050919050565b60006113ea826113bf565b9050919050565b6113fa816113df565b811461140557600080fd5b50565b600081359050611417816113f1565b92915050565b6000819050919050565b6114308161141d565b811461143b57600080fd5b50565b60008135905061144d81611427565b92915050565b6000806040838503121561146a5761146961123f565b5b600061147885828601611408565b92505060206114898582860161143e565b9150509250929050565b61149c8161141d565b82525050565b60006020820190506114b76000830184611493565b92915050565b6000806000606084860312156114d6576114d561123f565b5b60006114e486828701611408565b93505060206114f586828701611408565b92505060406115068682870161143e565b9150509250925092565b6000602082840312156115265761152561123f565b5b60006115348482850161143e565b91505092915050565b611546816113df565b82525050565b6000602082019050611561600083018461153d565b92915050565b60006020828403121561157d5761157c61123f565b5b600061158b84828501611408565b91505092915050565b600080fd5b600080fd5b7f4e487b7100000000000000000000000000000000000000000000000000000000600052604160045260246000fd5b6115d682611353565b810181811067ffffffffffffffff821117156115f5576115f461159e565b5b80604052505050565b6000611608611235565b905061161482826115cd565b919050565b600067ffffffffffffffff8211156116345761163361159e565b5b61163d82611353565b9050602081019050919050565b82818337600083830152505050565b600061166c61166784611619565b6115fe565b90508281526020810184848401111561168857611687611599565b5b61169384828561164a565b509392505050565b600082601f8301126116b0576116af611594565b5b81356116c0848260208601611659565b91505092915050565b6000602082840312156116df576116de61123f565b5b600082013567ffffffffffffffff8111156116fd576116fc611244565b5b6117098482850161169b565b91505092915050565b7f4e487b7100000000000000000000000000000000000000000000000000000000600052602260045260246000fd5b6000600282049050600182168061175957607f821691505b60208210810361176c5761176b611712565b5b50919050565b600081519050611781816113f1565b92915050565b60006020828403121561179d5761179c61123f565b5b60006117ab84828501611772565b91505092915050565b7f4572726f72202d20417070726f76616c20746f2063757272656e74206f776e6560008201527f7200000000000000000000000000000000000000000000000000000000000000602082015250565b600061181060218361130f565b915061181b826117b4565b604082019050919050565b6000602082019050818103600083015261183f81611803565b9050919050565b7f43757272656e742063616c6c6572206973206e6f7420746865206f776e65722060008201527f6f6620746f6b656e000000000000000000000000000000000000000000000000602082015250565b60006118a260288361130f565b91506118ad82611846565b604082019050919050565b600060208201905081810360008301526118d181611895565b9050919050565b7f6f776e657220696e646578206973206f7574206f6620626f756e640000000000600082015250565b600061190e601b8361130f565b9150611919826118d8565b602082019050919050565b6000602082019050818103600083015261193d81611901565b9050919050565b7f4e487b7100000000000000000000000000000000000000000000000000000000600052603260045260246000fd5b7f676c6f62616c20696e646578206973206f7574206f6620626f756e6400000000600082015250565b60006119a9601c8361130f565b91506119b482611973565b602082019050919050565b600060208201905081810360008301526119d88161199c565b9050919050565b7f6f776e657220717565727920666f72206e6f6e2d6578697374656e7420746f6b60008201527f656e730000000000000000000000000000000000000000000000000000000000602082015250565b6000611a3b60238361130f565b9150611a46826119df565b604082019050919050565b60006020820190508181036000830152611a6a81611a2e565b9050919050565b600081905092915050565b6000611a8782611304565b611a918185611a71565b9350611aa1818560208601611320565b80840191505092915050565b6000611ab98284611a7c565b915081905092915050565b7f4b727970746f426972643a206b727970746f6269726420616c7265616479206560008201527f7869737473000000000000000000000000000000000000000000000000000000602082015250565b6000611b2060258361130f565b9150611b2b82611ac4565b604082019050919050565b60006020820190508181036000830152611b4f81611b13565b9050919050565b7f4e487b7100000000000000000000000000000000000000000000000000000000600052601160045260246000fd5b6000611b908261141d565b9150611b9b8361141d565b925082821015611bae57611bad611b56565b5b828203905092915050565b7f746f6b656e20646f6573206e6f74206578697374000000000000000000000000600082015250565b6000611bef60148361130f565b9150611bfa82611bb9565b602082019050919050565b60006020820190508181036000830152611c1e81611be2565b9050919050565b7f4572726f72202d20455243373231205472616e7366657220746f20746865207a60008201527f65726f2061646472657373000000000000000000000000000000000000000000602082015250565b6000611c81602b8361130f565b9150611c8c82611c25565b604082019050919050565b60006020820190508181036000830152611cb081611c74565b9050919050565b7f547279696e6720746f207472616e73666572206120746f6b656e20746865206160008201527f64647265737320646f6573206e6f74206d61746368206f776e65720000000000602082015250565b6000611d13603b8361130f565b9150611d1e82611cb7565b604082019050919050565b60006020820190508181036000830152611d4281611d06565b9050919050565b6000611d548261141d565b9150611d5f8361141d565b9250827fffffffffffffffffffffffffffffffffffffffffffffffffffffffffffffffff03821115611d9457611d93611b56565b5b828201905092915050565b7f4552433732313a206d696e74696e6720746f207a65726f206164647265737300600082015250565b6000611dd5601f8361130f565b9150611de082611d9f565b602082019050919050565b60006020820190508181036000830152611e0481611dc8565b9050919050565b7f4552433732313a20746f6b656e20616c7265616479206d696e74656400000000600082015250565b6000611e41601c8361130f565b9150611e4c82611e0b565b602082019050919050565b60006020820190508181036000830152611e7081611e34565b905091905056fea26469706673582212201dd9b7f84d27c27f64ddb4f625ff0e146d0a7cdf55e4b7c014603acdc8badb1364736f6c634300080d0033",
  "immutableReferences": {},
  "source": "// SPDX-License-Identifier: MIT\npragma solidity ^0.8.0;\n\nimport \"./ERC712Connector.sol\";\n\ncontract KryptoBird is ERC721Connector {\n    string[] public KryptoBirdz;\n    mapping(string => bool) _kryptoBirdzExists;\n\n    constructor() ERC721Connector(\"KryptoBird\", \"KBIRDZ\") {}\n\n    function mint(string memory _kryptobird) public {\n        require(\n            !_kryptoBirdzExists[_kryptobird],\n            \"KryptoBird: kryptobird already exists\"\n        );\n\n        KryptoBirdz.push(_kryptobird);\n        uint256 _id = KryptoBirdz.length - 1;\n        _kryptoBirdzExists[_kryptobird] = true;\n        _mint(msg.sender, _id);\n    }\n}\n",
  "sourcePath": "/Users/macbookpro/Desktop/Waqar/Projects/crypto/nft-marketplace-starter-kit/src/contracts/KryptoBirdz.sol",
  "compiler": {
    "name": "solc",
    "version": "0.8.13+commit.abaa5c0e.Emscripten.clang"
  },
  "schemaVersion": "3.4.5",
  "updatedAt": "2022-04-04T17:22:30.158Z",
  "networkType": "ethereum",
  "devdoc": {
    "kind": "dev",
    "methods": {
      "balanceOf(address)": {
        "details": "This emits when an operator is enabled or disabled for an owner.  The operator can manage all NFTs of the owner."
      },
      "transferFrom(address,address,uint256)": {
        "details": "Throws unless `msg.sender` is the current owner, an authorized  operator, or the approved address for this NFT. Throws if `_from` is  not the current owner. Throws if `_to` is the zero address. Throws if  `_tokenId` is not a valid NFT.",
        "params": {
          "_from": "The current owner of the NFT",
          "_to": "The new owner",
          "_tokenId": "The NFT to transfer"
        }
      }
    },
    "version": 1
  },
  "userdoc": {
    "kind": "user",
    "methods": {
      "transferFrom(address,address,uint256)": {
        "notice": "Transfer ownership of an NFT -- THE CALLER IS RESPONSIBLE  TO CONFIRM THAT `_to` IS CAPABLE OF RECEIVING NFTS OR ELSE  THEY MAY BE PERMANENTLY LOST"
      }
    },
    "version": 1
  }
}