{
  "contractName": "KryptoBird",
  "abi": [
    {
      "inputs": [],
      "stateMutability": "nonpayable",
      "type": "constructor"
    },
    {
      "anonymous": false,
      "inputs": [
        {
          "indexed": false,
          "internalType": "address",
          "name": "from",
          "type": "address"
        },
        {
          "indexed": false,
          "internalType": "address",
          "name": "to",
          "type": "address"
        },
        {
          "indexed": false,
          "internalType": "uint256",
          "name": "tokenId",
          "type": "uint256"
        }
      ],
      "name": "Transfer",
      "type": "event"
    },
    {
      "inputs": [
        {
          "internalType": "uint256",
          "name": "",
          "type": "uint256"
        }
      ],
      "name": "KryptoBirdz",
      "outputs": [
        {
          "internalType": "string",
          "name": "",
          "type": "string"
        }
      ],
      "stateMutability": "view",
      "type": "function",
      "constant": true
    },
    {
      "inputs": [
        {
          "internalType": "address",
          "name": "_owner",
          "type": "address"
        }
      ],
      "name": "balanceOf",
      "outputs": [
        {
          "internalType": "uint256",
          "name": "",
          "type": "uint256"
        }
      ],
      "stateMutability": "view",
      "type": "function",
      "constant": true
    },
    {
      "inputs": [],
      "name": "name",
      "outputs": [
        {
          "internalType": "string",
          "name": "",
          "type": "string"
        }
      ],
      "stateMutability": "view",
      "type": "function",
      "constant": true
    },
    {
      "inputs": [
        {
          "internalType": "uint256",
          "name": "_tokenId",
          "type": "uint256"
        }
      ],
      "name": "ownerOf",
      "outputs": [
        {
          "internalType": "address",
          "name": "",
          "type": "address"
        }
      ],
      "stateMutability": "view",
      "type": "function",
      "constant": true
    },
    {
      "inputs": [],
      "name": "symbol",
      "outputs": [
        {
          "internalType": "string",
          "name": "",
          "type": "string"
        }
      ],
      "stateMutability": "view",
      "type": "function",
      "constant": true
    },
    {
      "inputs": [],
      "name": "totalSupply",
      "outputs": [
        {
          "internalType": "uint256",
          "name": "",
          "type": "uint256"
        }
      ],
      "stateMutability": "view",
      "type": "function",
      "constant": true
    },
    {
      "inputs": [
        {
          "internalType": "string",
          "name": "_kryptobird",
          "type": "string"
        }
      ],
      "name": "mint",
      "outputs": [],
      "stateMutability": "nonpayable",
      "type": "function"
    }
  ],
  "bytecode": "0x60806040523480156200001157600080fd5b506040518060400160405280600a81526020017f4b727970746f42697264000000000000000000000000000000000000000000008152506040518060400160405280600681526020017f4b424952445a00000000000000000000000000000000000000000000000000008152508181816000908051906020019062000098929190620000bc565b508060019080519060200190620000b1929190620000bc565b5050505050620001d1565b828054620000ca906200019b565b90600052602060002090601f016020900481019282620000ee57600085556200013a565b82601f106200010957805160ff19168380011785556200013a565b828001600101855582156200013a579182015b82811115620001395782518255916020019190600101906200011c565b5b5090506200014991906200014d565b5090565b5b80821115620001685760008160009055506001016200014e565b5090565b7f4e487b7100000000000000000000000000000000000000000000000000000000600052602260045260246000fd5b60006002820490506001821680620001b457607f821691505b60208210811415620001cb57620001ca6200016c565b5b50919050565b61103180620001e16000396000f3fe608060405234801561001057600080fd5b506004361061007d5760003560e01c806370a082311161005b57806370a08231146100ee57806395d89b411461011e578063a3a1ff581461013c578063d85d3d271461016c5761007d565b806306fdde031461008257806318160ddd146100a05780636352211e146100be575b600080fd5b61008a610188565b6040516100979190610965565b60405180910390f35b6100a861021a565b6040516100b591906109a0565b60405180910390f35b6100d860048036038101906100d391906109fb565b610227565b6040516100e59190610a69565b60405180910390f35b61010860048036038101906101039190610ab0565b6102d9565b60405161011591906109a0565b60405180910390f35b610126610391565b6040516101339190610965565b60405180910390f35b610156600480360381019061015191906109fb565b610423565b6040516101639190610965565b60405180910390f35b61018660048036038101906101819190610c12565b6104cf565b005b60606000805461019790610c8a565b80601f01602080910402602001604051908101604052809291908181526020018280546101c390610c8a565b80156102105780601f106101e557610100808354040283529160200191610210565b820191906000526020600020905b8154815290600101906020018083116101f357829003601f168201915b5050505050905090565b6000600480549050905090565b6000806002600084815260200190815260200160002060009054906101000a900473ffffffffffffffffffffffffffffffffffffffff169050600073ffffffffffffffffffffffffffffffffffffffff168173ffffffffffffffffffffffffffffffffffffffff1614156102d0576040517f08c379a00000000000000000000000000000000000000000000000000000000081526004016102c790610d2e565b60405180910390fd5b80915050919050565b60008073ffffffffffffffffffffffffffffffffffffffff168273ffffffffffffffffffffffffffffffffffffffff16141561034a576040517f08c379a000000000000000000000000000000000000000000000000000000000815260040161034190610d2e565b60405180910390fd5b600360008373ffffffffffffffffffffffffffffffffffffffff1673ffffffffffffffffffffffffffffffffffffffff168152602001908152602001600020549050919050565b6060600180546103a090610c8a565b80601f01602080910402602001604051908101604052809291908181526020018280546103cc90610c8a565b80156104195780601f106103ee57610100808354040283529160200191610419565b820191906000526020600020905b8154815290600101906020018083116103fc57829003601f168201915b5050505050905090565b6008818154811061043357600080fd5b90600052602060002001600091509050805461044e90610c8a565b80601f016020809104026020016040519081016040528092919081815260200182805461047a90610c8a565b80156104c75780601f1061049c576101008083540402835291602001916104c7565b820191906000526020600020905b8154815290600101906020018083116104aa57829003601f168201915b505050505081565b6009816040516104df9190610d8a565b908152602001604051809103902060009054906101000a900460ff161561053b576040517f08c379a000000000000000000000000000000000000000000000000000000000815260040161053290610e13565b60405180910390fd5b600881908060018154018082558091505060019003906000526020600020016000909190919091509080519060200190610576929190610829565b506000600160088054905061058b9190610e62565b9050600160098360405161059f9190610d8a565b908152602001604051809103902060006101000a81548160ff0219169083151502179055506105ce33826105d2565b5050565b6105dc82826105e9565b6105e58161078b565b5050565b600073ffffffffffffffffffffffffffffffffffffffff168273ffffffffffffffffffffffffffffffffffffffff161415610659576040517f08c379a000000000000000000000000000000000000000000000000000000000815260040161065090610ee2565b60405180910390fd5b610662816107b7565b156106a2576040517f08c379a000000000000000000000000000000000000000000000000000000000815260040161069990610f4e565b60405180910390fd5b816002600083815260200190815260200160002060006101000a81548173ffffffffffffffffffffffffffffffffffffffff021916908373ffffffffffffffffffffffffffffffffffffffff1602179055506001600360008473ffffffffffffffffffffffffffffffffffffffff1673ffffffffffffffffffffffffffffffffffffffff16815260200190815260200160002060008282546107449190610f6e565b925050819055507fddf252ad1be2c89b69c2b068fc378daa952ba7f163c4a11628f55a4df523b3ef6000838360405161077f93929190610fc4565b60405180910390a15050565b600481908060018154018082558091505060019003906000526020600020016000909190919091505550565b6000806002600084815260200190815260200160002060009054906101000a900473ffffffffffffffffffffffffffffffffffffffff169050600073ffffffffffffffffffffffffffffffffffffffff168173ffffffffffffffffffffffffffffffffffffffff161415915050919050565b82805461083590610c8a565b90600052602060002090601f016020900481019282610857576000855561089e565b82601f1061087057805160ff191683800117855561089e565b8280016001018555821561089e579182015b8281111561089d578251825591602001919060010190610882565b5b5090506108ab91906108af565b5090565b5b808211156108c85760008160009055506001016108b0565b5090565b600081519050919050565b600082825260208201905092915050565b60005b838110156109065780820151818401526020810190506108eb565b83811115610915576000848401525b50505050565b6000601f19601f8301169050919050565b6000610937826108cc565b61094181856108d7565b93506109518185602086016108e8565b61095a8161091b565b840191505092915050565b6000602082019050818103600083015261097f818461092c565b905092915050565b6000819050919050565b61099a81610987565b82525050565b60006020820190506109b56000830184610991565b92915050565b6000604051905090565b600080fd5b600080fd5b6109d881610987565b81146109e357600080fd5b50565b6000813590506109f5816109cf565b92915050565b600060208284031215610a1157610a106109c5565b5b6000610a1f848285016109e6565b91505092915050565b600073ffffffffffffffffffffffffffffffffffffffff82169050919050565b6000610a5382610a28565b9050919050565b610a6381610a48565b82525050565b6000602082019050610a7e6000830184610a5a565b92915050565b610a8d81610a48565b8114610a9857600080fd5b50565b600081359050610aaa81610a84565b92915050565b600060208284031215610ac657610ac56109c5565b5b6000610ad484828501610a9b565b91505092915050565b600080fd5b600080fd5b7f4e487b7100000000000000000000000000000000000000000000000000000000600052604160045260246000fd5b610b1f8261091b565b810181811067ffffffffffffffff82111715610b3e57610b3d610ae7565b5b80604052505050565b6000610b516109bb565b9050610b5d8282610b16565b919050565b600067ffffffffffffffff821115610b7d57610b7c610ae7565b5b610b868261091b565b9050602081019050919050565b82818337600083830152505050565b6000610bb5610bb084610b62565b610b47565b905082815260208101848484011115610bd157610bd0610ae2565b5b610bdc848285610b93565b509392505050565b600082601f830112610bf957610bf8610add565b5b8135610c09848260208601610ba2565b91505092915050565b600060208284031215610c2857610c276109c5565b5b600082013567ffffffffffffffff811115610c4657610c456109ca565b5b610c5284828501610be4565b91505092915050565b7f4e487b7100000000000000000000000000000000000000000000000000000000600052602260045260246000fd5b60006002820490506001821680610ca257607f821691505b60208210811415610cb657610cb5610c5b565b5b50919050565b7f6f776e657220717565727920666f72206e6f6e2d6578697374656e7420746f6b60008201527f656e730000000000000000000000000000000000000000000000000000000000602082015250565b6000610d186023836108d7565b9150610d2382610cbc565b604082019050919050565b60006020820190508181036000830152610d4781610d0b565b9050919050565b600081905092915050565b6000610d64826108cc565b610d6e8185610d4e565b9350610d7e8185602086016108e8565b80840191505092915050565b6000610d968284610d59565b915081905092915050565b7f4b727970746f426972643a206b727970746f6269726420616c7265616479206560008201527f7869737473000000000000000000000000000000000000000000000000000000602082015250565b6000610dfd6025836108d7565b9150610e0882610da1565b604082019050919050565b60006020820190508181036000830152610e2c81610df0565b9050919050565b7f4e487b7100000000000000000000000000000000000000000000000000000000600052601160045260246000fd5b6000610e6d82610987565b9150610e7883610987565b925082821015610e8b57610e8a610e33565b5b828203905092915050565b7f4552433732313a206d696e74696e6720746f207a65726f206164647265737300600082015250565b6000610ecc601f836108d7565b9150610ed782610e96565b602082019050919050565b60006020820190508181036000830152610efb81610ebf565b9050919050565b7f4552433732313a20746f6b656e20616c7265616479206d696e74656400000000600082015250565b6000610f38601c836108d7565b9150610f4382610f02565b602082019050919050565b60006020820190508181036000830152610f6781610f2b565b9050919050565b6000610f7982610987565b9150610f8483610987565b9250827fffffffffffffffffffffffffffffffffffffffffffffffffffffffffffffffff03821115610fb957610fb8610e33565b5b828201905092915050565b6000606082019050610fd96000830186610a5a565b610fe66020830185610a5a565b610ff36040830184610991565b94935050505056fea26469706673582212200654f8b89f0a2d7f7fe278f07f8af55ba745bdea5be445e9a27dcd7bb23f9f1064736f6c634300080c0033",
  "immutableReferences": {},
  "source": "// SPDX-License-Identifier: MIT\npragma solidity ^0.8.0;\n\nimport \"./ERC712Connector.sol\";\n\ncontract KryptoBird is ERC721Connector {\n    string[] public KryptoBirdz;\n    mapping(string => bool) _kryptoBirdzExists;\n\n    constructor() ERC721Connector(\"KryptoBird\", \"KBIRDZ\") {}\n\n    function mint(string memory _kryptobird) public {\n        require(\n            !_kryptoBirdzExists[_kryptobird],\n            \"KryptoBird: kryptobird already exists\"\n        );\n\n        KryptoBirdz.push(_kryptobird);\n        uint256 _id = KryptoBirdz.length - 1;\n        _kryptoBirdzExists[_kryptobird] = true;\n        _mint(msg.sender, _id);\n    }\n}\n",
  "sourcePath": "/Users/macbookpro/Desktop/Waqar/Projects/crypto/nft-marketplace-starter-kit/src/contracts/KryptoBirdz.sol",
  "compiler": {
    "name": "solc",
    "version": "0.8.12+commit.f00d7308.Emscripten.clang"
  },
  "schemaVersion": "3.4.5",
  "updatedAt": "2022-03-03T03:48:24.814Z",
  "networkType": "ethereum",
  "devdoc": {
    "kind": "dev",
    "methods": {},
    "version": 1
  },
  "userdoc": {
    "kind": "user",
    "methods": {},
    "version": 1
  }
}